S10E4000CF3DFF16411287CE10008E4A
S110400B100027056A000820F6CE4117CDED
S111401810008E41172706180A307020F51686
S1074026411720FE1C
S111402A3B3435180F1640A431303A3D3B3478
S111403835180F16409C31303A3D3B34351696
S1114046404C31303A3D180B0F0242180B006B
S110405402401C025A0F1D00F040180BFE24
S11140610252180B0002501D02400E1640EAD7
S111406F86021640B01640EA86281640A416B3
S110407D40F8860E1640A41640F886011681
S10E408A40A41640F386801640A416E4
S111409540F81D02400E3D1C0240041640DDA2
S11140A33D1D0240041640DD1C0240043D1C7D
S11140B1024880164101F60258C4F0840F182C
S11140BF067A02581D0240081641011C0240F8
S11140CD081641011D0240081641011D02485B
S11140DB803D36444444441640B0321640B092
S11140E93D34CEC34E16410A303D0703070195
S11140F73D34CE270E16410A303D34CE03E68A
S110410516410A303DA7A7A7A70926F93DDA
S10841121D0016073D2D
S9034000BC
